:020000040800F2
:1000000038040020450100084D0100084F01000898
:1000100051010008530100085501000800000000CC
:100020000000000000000000000000005701000870
:1000300059010008000000005B0100085D01000894
:100040005F0100085F0100085F0100085F01000810
:100050005F0100085F0100085F0100085F01000800
:100060005F0100085F0100085F0100085F010008F0
:100070005F0100085F0100085F0100085F010008E0
:100080005F0100085F0100085F0100085F010008D0
:100090005F0100085F0100085F0100085F010008C0
:1000A0005F0100085F0100085F0100085F010008B0
:1000B0005F0100085F0100085F0100085F010008A0
:1000C0005F0100085F0100085F0100085F01000890
:1000D0005F0100085F0100085F0100085F01000880
:1000E0005F0100085F0100085F0100085F01000870
:1000F0005F0100085F0100085F0100085F01000860
:100100005F0100085F0100085F0100085F0100084F
:100110005F0100085F0100085F0100085F0100083F
:100120005F0100085F0100085F0100085F0100082F
:10013000DFF80CD000F0E4FC00480047BD010008E7
:10014000380400200648804706480047FEE7FEE7DF
:10015000FEE7FEE7FEE7FEE7FEE7FEE7FEE7FEE777
:10016000010A00083101000810B50121282000F023
:100170007BFB20202E4908801020C8700320887047
:100180002C4800F0BFF84820294908802A4800F090
:10019000B9F84FF40040264908804820C870032071
:1001A0008870244800F0AEF810BD00E0401E002822
:1001B000FCD1704710B500F023FC10BDFFF7FAFF2B
:1001C000FFF7D2FF33E020211A4800F046F9402122
:1001D000194800F044F90821174800F040F9174881
:1001E000FFF7E3FF2021134800F039F940211248BE
:1001F00000F033F90821104800F031F90F48FFF7FB
:10020000D4FF20210B4800F02AF940210A4800F0D1
:1002100026F90821084800F020F90848FFF7C5FF33
:100220004FF40041034800F0FEF805490860CAE7B2
:100230000C000020000C014000140140FFFF0A00E8
:100240000000002010B50446CA48844208D10121AC
:10025000042000F023FB0021042000F01FFB46E0F7
:10026000C548844208D10121082000F017FB002175
:10027000082000F013FB3AE0C048844208D1012175
:10028000102000F00BFB0021102000F007FB2EE0F7
:10029000BB48844208D10121202000F0FFFA002150
:1002A000202000F0FBFA22E0B648844208D1012168
:1002B000402000F0F3FA0021402000F0EFFA16E0B1
:1002C000B148844208D10121802000F0E7FA0021E2
:1002D000802000F0E3FA0AE0AC48844207D1012113
:1002E000801500F0DBFA0021A01500F0D7FA10BD50
:1002F00010B50121084600F0D1FA0021012000F0DC
:10030000CDFA10BD2DE9F04102460025002600205F
:1003100000230024002791F803C00CF00F0591F88A
:1003200003C01CF0100F03D091F802C04CEA050581
:1003300091F800C0BCF1000F31D0146800202BE010
:100340004FF0010C0CFA00F3B1F800C00CEA030600
:100350009E4220D183004FF00F0C0CFA03F7BC43F0
:1003600005FA03FC4CEA040491F803C0BCF1280F21
:1003700006D14FF0010C0CFA00FCC2F814C00AE0E0
:1003800091F803C0BCF1480F05D14FF0010C0CFAF5
:1003900000FCC2F810C0401C0828D1D31460B1F88A
:1003A00000C0BCF1FF0F34DD546800202EE000F1E6
:1003B000080C4FF0010808FA0CF3B1F800C00CEA81
:1003C00003069E4221D183004FF00F0C0CFA03F775
:1003D000BC4305FA03FC4CEA040491F803C0BCF1E9
:1003E000280F05D100F1080C08FA0CF8C2F81480A7
:1003F00091F803C0BCF1480F07D100F1080C4FF091
:10040000010808FA0CF8C2F81080401C0828CED366
:100410005460BDE8F0814FF6FF71018002218170C8
:100420000421C17070470246002093680B4201D03E
:10043000012000E0002070470146886880B27047C4
:1004400002460020D3680B4201D0012000E00020CA
:1004500070470146C86880B27047016170474161CA
:1004600070470AB1016100E041617047C1607047A7
:100470004FF480320A4382618161826182698269BC
:10048000704702460020424B18684FF680731840B0
:1004900040EA021008433E4B186070473D49C8616E
:1004A0007047F0B50A46002300240021002500F023
:1004B0000046B6F1004F02D1354EF16901E0344EED
:1004C0007168C0F3034583B200F44016B6F5401FCF
:1004D00008D121F070612E4E766826F070662C4FA0
:1004E0007E6012E000F48016B6F5801F06D1032668
:1004F00006FA05F4A14341F0706106E0460D3601AD
:1005000003FA06F6B14341F0706122B1460D36019F
:1005100003FA06F6314300F00046B6F1004F02D16F
:100520001B4EF16101E01A4E7160F0BD30B5002242
:100530008B071C0F0F2303FA04F2154B08338C10A2
:1005400053F824309343124C08348D1044F825306E
:1005500023468C1053F824308C07240F00FA04F43F
:1005600023430B4C08348D1044F8253030BD0A4924
:100570000860704700080140000C01400010014075
:100580000014014000180140001C014000200140FF
:100590000000014000002042DC002042DB480068EF
:1005A00040F00100D949086008464068D849084031
:1005B000D649486008460068D6490840D3490860D3
:1005C0000846006820F4802008600846406820F44F
:1005D000FE0048604FF41F0088607047CB490968EF
:1005E00021F48031C94A11601146096821F4802143
:1005F0001160B0F5803F03D0B0F5802F0ED106E03A
:10060000C249096841F48031C04A116007E0BF491E
:10061000096841F4A021BD4A116000E000BF00BF9D
:10062000704710B501460022002300204A11012A1C
:1006300002D1B64C236806E0022A02D1B34C236AE9
:1006400001E0B24C636A01F01F02012494401C4295
:1006500001D0012000E0002010BD70B5002400256D
:10066000002600BF3120FFF7DCFF0646641CB4F50E
:10067000A06F01D0002EF5D03120FFF7D2FF08B1D6
:10068000012500E00025284670BD014600209F4A54
:10069000106820F0F80040EAC100106070479E49E1
:1006A0000860704702460020984B586820F47C1080
:1006B00042EA01031843954B586070479649086613
:1006C000704701460020914A506820F0030008431B
:1006D000506070478D48406800F00C00704701463C
:1006E00000208A4A506820F0F000084350607047AC
:1006F00001460020854A506820F4E06008435060BD
:10070000704701460020814A506820F4605040EA5A
:10071000C1005060704729B17C4A527A02437B4B3A
:100720005A7204E0794A527A8243784B5A7270477F
:100730007A490860704701460020744A506820F4E6
:1007400040400843506070470021754A11706F4A5D
:1007500082F82010012802D0042808D103E00121EA
:100760006F4A117004E005216D4A117000E000BF6E
:1007700000BF70476B49086070476449096A0143CC
:10078000624A11627047674944390860704730B562
:1007900000210022002400235C4D6D6805F00C014F
:1007A00021B1042905D0082923D105E05E4D05605B
:1007B00022E05D4D05601FE0544D6D6805F4701238
:1007C000524D6D6805F48034022505EB92421CB948
:1007D000564D554305600BE04C4D6D6815F4003FD8
:1007E00003D0524D5543056002E04F4D554305601F
:1007F00002E04D4D056000BF00BF444D6D6805F03F
:10080000F00109094A4D6B5C0568DD4045603F4DCC
:100810006D6805F4E061090A454D6B5C4568DD4093
:1008200085603A4D6D6805F46051C90A404D6B5CB6
:100830004568DD40C560354D6D6805F44041890B64
:100840003C4D6B5CC568B5FBF3F5056130BD29B166
:100850002E4A526902432D4B5A6104E02B4A5269D9
:1008600082432A4B5A61704729B1284A9269024350
:10087000264B9A6104E0254A92698243234B9A6190
:10088000704729B1214AD2690243204BDA6104E062
:100890001E4AD26982431D4BDA61704729B11B4A57
:1008A000D2680243194BDA6004E0184AD2688243E6
:1008B000164BDA60704729B1144A12690243134B90
:1008C0001A6104E0114A12698243104B1A617047A1
:1008D00014494039086070470F49C86470470B4994
:1008E000C87170470948406A40F080700749486203
:1008F000704701460020054A92680A4201D0012053
:1009000000E00020704701498872704700100240E3
:100910000000FFF8FFFFF6FE00004242D80042420E
:10092000201002408004424200127A0000093D007B
:10093000100000202000002000210020674A1268DB
:1009400042F48032654B1A6000BF644A126802F4B8
:100950000030491C10B9B1F5A06FF6D15F4A12689A
:1009600012F4003F01D0012000E00020012842D114
:100970005B4A126842F01002594B1A601A4612681C
:1009800022F003021A601A46126842F002021A604C
:10099000524A5268514B5A601A4652685A601A4677
:1009A000526842F480625A601A46526822F47C12FD
:1009B0005A601A46526842F4E8125A601A4612689F
:1009C00042F080721A6000BF444A126812F0007F41
:1009D000FAD0424A526822F00302404B5A601A464B
:1009E000526842F002025A6000BF3C4A526802F06C
:1009F0000C02082AF9D1704710B5FFF79DFF10BD12
:100A000010B53648006840F00100344908600846D7
:100A10004068344908403149486008460068324916
:100A200008402E4908600846006820F480200860CD
:100A30000846406820F4FE0048604FF41F008860BC
:100A4000FFF7DAFF4FF000602849086010BD10B5CD
:100A5000002100200022214B5B6803F00C0121B132
:100A6000042906D0082928D107E0214B214C236016
:100A700027E01F4B1F4C236023E0184B5B6803F4F7
:100A80007010164B5B6803F48032022303EB904036
:100A900022B9194B4343174C23600DE00F4B5B68A1
:100AA00013F4003F04D0144B4343124C236003E083
:100AB0000F4B43430F4C236003E00D4B0D4C236061
:100AC00000BF00BF054B5B68C3F303130B4CE15C35
:100AD000084B1B68CB40074C236010BD0010024040
:100AE000002002400000FFF8FFFFF6FE08ED00E0E6
:100AF00000127A002400002000093D002800002098
:100B0000064C074D06E0E06840F0010394E807005A
:100B100098471034AC42F6D3FFF70EFB440B0008A5
:100B2000640B000802E008C8121F08C1002AFAD1AD
:100B300070477047002001E001C1121F002AFBD15D
:100B400070470000640B000800000020380000001F
:100B5000240B00089C0B0008380000200004000053
:100B6000340B00080000000000000000000000003E
:100B70000000000000000000010203040102030461
:100B8000060708090204060800A24A040000000043
:0C0B900000000000010203040607080931
:0400000508000131BD
:00000001FF
