:020000040800F2
:10000000580E0020650100086D0100086F0100080E
:10001000710100087301000875010008000000006C
:100020000000000000000000000000007701000850
:1000300079010008000000007B0100083506000877
:100040007F0100087F0100087F0100087F01000890
:100050007F0100087F0100087F0100087F01000880
:100060007F0100087F0100087F0100087F01000870
:100070007F0100087F0100087F0100087F01000860
:100080007F0100087F0100087F0100087F01000850
:100090007F0100087F0100087F0100087F01000840
:1000A0007F0100087F0100087F0100087F01000830
:1000B0007F0100087F0100087F0100087F01000820
:1000C0007F0100087F0100087F0100087F01000810
:1000D0007F010008E10600087F0100087F01000899
:1000E0007F0100087F0100087F0100087F010008F0
:1000F0007F0100087F0100087F0100087F010008E0
:100100007F0100087F0100087F0100087F010008CF
:100110007F0100087F0100087F0100087F010008BF
:100120007F0100087F0100087F0100087F010008AF
:10013000DFF80CD000F03AF800480047DD0A00086C
:10014000580E0020EFF30980704780F3098870474C
:10015000EFF30880704780F30888704740BA704713
:10016000C0BA70470648804706480047FEE7FEE7EA
:10017000FEE7FEE7FEE7FEE7FEE7FEE7FEE7FEE757
:100180005906000831010008D2B201E000F8012B45
:10019000491EFBD270470022F6E710B513460A4607
:1001A00004461946FFF7F0FF204610BD064C074DE8
:1001B00006E0E06840F0010394E807009847103437
:1001C000AC42F6D3FFF7B8FF3C0E00085C0E000807
:1001D00030B58C1810F8012B12F00F0301D110F874
:1001E000013B120906D110F8012B03E010F8015B66
:1001F00001F8015B5B1EF9D101E001F8013B521EE1
:10020000FBD1A142E6D3002030BD000010B5002A8A
:1002100006D0044B11F8014B4440521E185DF9D131
:1002200010BD00001400002070B505464FF43026C4
:10023000304600F059F8042811D1094C206940F0EB
:10024000020020616561206940F040002061304675
:1002500000F04AF8216941F6FD721140216170BD3C
:100260000020024008490420CA68D20701D00120BA
:100270007047CA68520701D502207047C968C9068D
:10028000FBD50320704700000020024002480169AE
:1002900041F080010161704700200240F0B5064640
:1002A0004FF400570D46384600F01EF804280CD1D4
:1002B000064C206940F0010020613580384600F08E
:1002C00013F82169BA1E11402161F0BD00200240DF
:1002D0000348024941600349416070472301674573
:1002E00000200240AB89EFCD00B50346FFF7BAFF0F
:1002F00003E000BFFFF7B6FF5B1E012803D0002B11
:1003000000D1052000BD002BF4D1FAE770B5002321
:100310000A4C0CE0C55A256001290BD02578D5542C
:10032000D6189B1C6578891E75709BB289B200290E
:10033000F0D170BD2078D05470BD000010000020B6
:100340002DE9F04117460D4680460024FFF7C0FF17
:100350004046FFF769FF0C4E10E0385D30703819E9
:1003600040787070308881B208EB0400FFF796FF88
:10037000012D05D0A41CAD1EA4B2ADB2002DECD150
:10038000BDE8F041FFF782BF10000020F0B5CA7849
:10039000002502F00F03D20601D58A7813430C78AA
:1003A0004FF00F0E0122ECB1D0F800400F8802FA96
:1003B00005F63740B74211D14FEA850C0EFA0CF71B
:1003C00024EA070703FA0CF43C43CF78282F02D025
:1003D000482F02D002E0466100E006616D1C082D46
:1003E000E4D304600C88FF2C1ED944685FF000063B
:1003F00006F1080702FA07F50F882F40AF420FD128
:100400004FEA860C0EFA0CF7BC4303FA0CF73C4398
:10041000CF78282F00D14561CF78482F00D10561D2
:10042000761C082EE4D34460F0BD08B54FF4E060BC
:1004300000F042F825208DF8000000208DF8010022
:100440008DF8020001208DF80300684600F002F8E4
:1004500008BD0000F0B50F21C478027801234FF0E9
:10046000E026DCB1124C2468457804F4E064C4F55D
:10047000E064240AC4F10407E1408478BD400C40E4
:100480002C4321010B4C1155007800F01F018B40CB
:10049000400906EB8000C0F80031F0BD02F01F00FB
:1004A0008340500906EB8000C0F88031F0BD0000A9
:1004B0000CED00E000E400E0024908430249086056
:1004C000704700000000FA050CED00E0044A002926
:1004D000916901D0014300E08143916170470000C0
:1004E0000010024010B500F0B7F8BDE8104001213F
:1004F00044F20D00FFF7EABF30B520494A6812F018
:100500000C031F4A03D0042B01D0082B22D0026019
:100510004A680F231B4C03EA1212A35C0268DA40FC
:1005200042604B68072505EA1323E35C22FA03F3D4
:1005300083604B6805EAD323E35C22FA03F2C260CE
:100540004968032303EA9131231F595CB2FBF1F19F
:10055000016130BD4A684B6802F470124FF002042A
:1005600013F4803F04EB924202D04B689B0301D509
:10057000054B00E0024B5A43C9E70000001002405F
:1005800000127A002C01002000093D000CB500216A
:10059000264801910091026842F4803202604FF4D3
:1005A000A063026802F400320092019A521C019288
:1005B000009A12B9019A9A42F3D10268920333D594
:1005C000012100911A490A6842F010020A600A6883
:1005D00022F003020A600A6842F002020A604168DF
:1005E000416041684160416841F480614160416817
:1005F00021F47C114160416841F4E81141600168D7
:1006000041F08071016001688901FCD5416821F0E9
:1006100003014160416841F0020141604168C1F35A
:1006200081010229FAD10CBD00910CBD00100240DD
:10063000002002400648C16811B1C168491EC1606E
:1006400004480168002902D00168491E0160704712
:10065000000000201C0100200F4810B5016841F087
:100660000101016041680D4A1140416001680C4A76
:1006700011400160016821F480210160416821F48A
:10068000FE0141604FF41F018160FFF77FFF0549C4
:100690004FF00060086010BD001002400000FFF83D
:1006A000FFFFF6FE08ED00E070B50C46054604E0DD
:1006B000287800F005F86D1C641E002CF8D170BD80
:1006C00010B5064C0146204600F054F94021204662
:1006D00000F0B4F80028F9D010BD00000038014047
:1006E0002DE9F0412B4F40F22551384600F0ADF88E
:1006F00008B3384600F03AF9C5B20026264CAA2DB8
:1007000002D1A06800B966800A20A06023496288EF
:100710000220012A8D5402D0032A02D00CE0657019
:100720000AE08B78C97803EB012189B2A180B1F589
:10073000827F01D920701BE02178C9B9A188091DE9
:100740008A420DD115490020FFF760FD854205D191
:10075000134942F210700860032007E0012005E011
:10076000521C91B26180B1F5857F01D32070668003
:1007700040F227742146384600F067F8002806D07A
:1007800021463846BDE8F041002200F07DB8BDE8C2
:10079000F081000000380140140100203C090020D5
:1007A0000C0000200029818902D041F4005101E0B1
:1007B00021F400518181704710B586B0FFF735FEF6
:1007C0004FF40070ADF8100018208DF813000320CE
:1007D000184C8DF8120004A92046FFF7D7FD20150C
:1007E000ADF8100004208DF8130004A92046FFF78F
:1007F000CDFD4FF4165000900020ADF80400ADF888
:100800000600ADF80800ADF80C000C200A4CADF85D
:100810000A006946204600F04FF8012240F22551B7
:10082000204600F031F801212046FFF7BBFF06B05B
:1008300010BD0000000801400038014002460020C1
:1008400012880A4200D00120704730B501F01F0223
:1008500001240025C1F3421304FA02F2012B0FD048
:10086000022B0FD0838A4FEA11210088134204FA29
:1008700001F400EA040001D000B10125284630BD92
:100880008389F0E7038AEEE710B5C1F3421301F064
:100890001F040121A140012B07D0022B07D01430E7
:1008A000002A026805D00A4304E00C30F8E7103053
:1008B000F6E78A43026010BD30B50446008A85B071
:1008C0000D464CF6FF710840E98801432182A18959
:1008D0004EF6F3100140A8882A8910436A890A431A
:1008E0001043A081A08A4FF6FF410840A989014327
:1008F000A1826846FFF700FE1B48844201D103989D
:1009000000E00298A1890904002900EBC00101EB75
:100910000010296802DA4FEA410101E04FEA810143
:10092000B0FBF1F06422B0FBF2F14FEA01114FEAA3
:1009300011136FF018056B4300EB8300A3891D04AE
:100940004FF0320306D503EBC000B0FBF2F000F02D
:10095000070005E003EB0010B0FBF2F000F00F0021
:100960000843208105B030BD003801408088C0F3C5
:1009700008007047C1F308018180704702E008C891
:10098000121F08C1002AFAD170477047002001E009
:1009900001C1121F002AFBD1704700002DE9F05F52
:1009A000DFF8CCB00025314A10215846FFF7AEFCE5
:1009B0000C222E490020FFF729FC2C4C217B814280
:1009C0004FD12078DFF8AC90EF1EAA2807D021463F
:1009D000484600F055F8A178814244D03D46264E65
:1009E0002249304600F04CF8A17881422CD10025F4
:1009F000B0464FF4006A4F4613E000BF08EBC52035
:100A00001E4A5146FFF782FC07EBC52006461B4AEB
:100A10005146FFF795FC3046184A5146FFF776FCE1
:100A20006D1C6078A842E9DC6068A060002020703E
:100A30000C220E49FFF7EAFB20730C4A102158469E
:100A4000FFF77EFC01250EE0E81C0CD06FF00105DD
:100A50000649484600F014F8A178814203D03D468B
:100A600001E04FF0FF352846BDE8F09F480A00201E
:100A700000F8030800100008000004083C010020F2
:100A80002DE9F04300270E4680463D463C464FF494
:100A900000690EE008EBC4200F4A4946FFF736FC18
:100AA0004A460D493846FFF7B1FB074605F5006594
:100AB000641C7078401EA042ECDC7068064A451B3E
:100AC000A9B208EBC420FFF721FC2A463846BDE84E
:100AD000F0430149FFF79ABB3C0100201CB525A15A
:100AE000D1E90001CDE90001FFF7FCFC4FF0E02067
:100AF00022494161224AF0211170002181610721C0
:100B00000161FFF759FE05216846FFF7CDFD1D4C39
:100B100042F21075E560012600F03CF8C0B20128F1
:100B200005D0E0680028F7D120680028F4D0FFF74E
:100B300035FFC01C07D014480168144A1140B1F1B8
:100B4000005F03D00AE0E5602660E5E74168A16048
:100B500061600068FFF7FFFA60688047084817384F
:100B600001680B4A01F4E06111430160BFF3408F5B
:100B7000FEE70000AA550000FC0000003F1901003C
:100B800023ED00E000000020001000080000FE2F10
:100B90000400FA052DE9F04F8BB00024A246202175
:100BA0006846FFF7F8FA9E4DAA218DF800102978C3
:100BB000994F9A480026012906D003290DD004290F
:100BC0007ED005297CD11CE168788DF801000120D8
:100BD0008DF802008DF80400A5E0DFF848826FF080
:100BE000030C6A7898F8031098F802300CEB012196
:100BF00003EB010E98F80510099198F8043008935A
:100C000003EB012C98F8063098F807109B46DFF8A4
:100C1000089203EB0123012A06D0022A7DD0032A81
:100C20007CD0042ACED1ACE01F041FFA8EF81FFA44
:100C30008CFB3F0C3AD1784A10217B48FFF766FBCA
:100C40007A48C5E9036089F8006089F80160C9F84D
:100C5000046089F8026029E07248754A2044017AEC
:100C6000E8681154401CE860B0F500611DD14FF4F4
:100C700000612869FFF764FB28694FF4006200F502
:100C80000060C5E9036099F801006949401C89F8D2
:100C90000100D9F8040000F50060C9F8040099F8D3
:100CA0000200FFF7B3FA89F80200641C4445D3DB65
:100CB000BB452DD1E868D0B15D4A4FF4006100E03A
:100CC0009BE02869FFF73CFB99F801004C46401C6B
:100CD00089F80100D9F80400EA6855491044C9F8B8
:100CE000040099F80200FFF791FAA070EE60AA20C4
:100CF00089F800004C460C2247490020FFF786FA8D
:100D00002073454A10214848FFF71AFB4FF0010AAB
:100D100068788DF80100012001E00FE030E08DF8E7
:100D200002008DF80460052269460020FFF76EFA84
:100D30008DF805002E70062168465CE0364A1021C9
:100D40003948FFF7E3FA6878A9468DF801001025C5
:100D50008DF80250B0468DF803606E46311917F8D1
:100D6000010B641C0871AC42F8DB2A1D31460020DF
:100D7000FFF74CFA7119087189F80080691DDBE7EB
:100D80002A481FFA8CF49BB29C4204D94FF4807419
:100D900003FB040006E030D1D9F80430DCB2A3EB49
:100DA0000403184488F8012004F1050288F80220A1
:100DB0004FEA122288F8032088F8081088F807B054
:100DC000099988F80610089988F80510154A88F8D6
:100DD0000460214602F10902FFF798FA04F10902C2
:100DE00010490020FFF712FA08EB040148722E7038
:100DF00004F10A010B48FFF757FC0BB05046BDE861
:100E0000F08F0C4801680C4A01F4E0611143016065
:100E1000BFF3408FFEE70000480A002000100008E2
:100E2000140100203C09002000F803080000040819
:100E30003C0100200CED00E00400FA055C0E000807
:100E4000000000203C010000D0010008780F0008DD
:100E50003C0100201C0D00008C0900080215011047
:100E6000FF5EBCE2613FDD83C29C7E20A3FD1F418B
:100E70009DC3217FFCA2401E5F01E3BD3E6082DC7A
:100E8000237D9FC1421CFEA0E1BF5D0380DE3C626A
:100E9000BEE0025CDF81633D7C22C09E1D43A1FF5A
:100EA0004618FAA427799BC584DA3866E5BB59074A
:100EB000DB856739BAE406581947A5FB7826C49A3A
:100EC000653BD987045AB8E6A7F91B45C6987A242A
:100ED000F8A6441A99C7257B3A6486D85B05E7B91A
:100EE0008CD2306EEDB3510F4E10F2AC2F7193CD0A
:100EF000114FADF3702ECC92D38D6F31B2EC0E50FA
:100F0000AFF1134DCE90722C6D33D18F0C52B0EEE9
:100F1000326C8ED0530DEFB1F0AE4C1291CF2D73D9
:100F2000CA947628ABF517490856B4EA6937D58BC9
:100F30005709EBB536688AD495CB2977F4AA4816B9
:100F4000E9B7550B88D6346A2B7597C94A14F6A8A9
:100F5000742AC896154BA9F7B6E80A54D7896B923C
:100F600035A20A570408020406081D010203040101
:080F7000020304060708090052
:0400000508000131BD
:00000001FF
